{
  "contractName": "EmbodiedCarbonLedgerV2",
  "abi": [
    {
      "inputs": [],
      "stateMutability": "nonpayable",
      "type": "constructor"
    },
    {
      "inputs": [],
      "name": "EmptyJSON",
      "type": "error"
    },
    {
      "inputs": [],
      "name": "InvalidAddress",
      "type": "error"
    },
    {
      "inputs": [],
      "name": "NotAuthorised",
      "type": "error"
    },
    {
      "inputs": [],
      "name": "OnlyOwner",
      "type": "error"
    },
    {
      "inputs": [],
      "name": "VolumeZero",
      "type": "error"
    },
    {
      "anonymous": false,
      "inputs": [
        {
          "indexed": true,
          "internalType": "uint256",
          "name": "id",
          "type": "uint256"
        },
        {
          "indexed": true,
          "internalType": "address",
          "name": "user",
          "type": "address"
        },
        {
          "indexed": true,
          "internalType": "string",
          "name": "projectId",
          "type": "string"
        },
        {
          "indexed": false,
          "internalType": "string",
          "name": "jsonData",
          "type": "string"
        }
      ],
      "name": "EmissionsJSONLogged",
      "type": "event"
    },
    {
      "anonymous": false,
      "inputs": [
        {
          "indexed": true,
          "internalType": "uint256",
          "name": "id",
          "type": "uint256"
        },
        {
          "indexed": true,
          "internalType": "address",
          "name": "user",
          "type": "address"
        },
        {
          "indexed": true,
          "internalType": "string",
          "name": "projectId",
          "type": "string"
        },
        {
          "indexed": false,
          "internalType": "enum EmbodiedCarbonLedgerV2.Material",
          "name": "material",
          "type": "uint8"
        },
        {
          "indexed": false,
          "internalType": "uint256",
          "name": "volume",
          "type": "uint256"
        },
        {
          "indexed": false,
          "internalType": "uint256",
          "name": "totalKgCO2e",
          "type": "uint256"
        }
      ],
      "name": "MaterialEmissionsLogged",
      "type": "event"
    },
    {
      "anonymous": false,
      "inputs": [
        {
          "indexed": true,
          "internalType": "address",
          "name": "uploader",
          "type": "address"
        }
      ],
      "name": "UploaderAuthorised",
      "type": "event"
    },
    {
      "anonymous": false,
      "inputs": [
        {
          "indexed": true,
          "internalType": "address",
          "name": "uploader",
          "type": "address"
        }
      ],
      "name": "UploaderDeauthorised",
      "type": "event"
    },
    {
      "inputs": [
        {
          "internalType": "address",
          "name": "",
          "type": "address"
        }
      ],
      "name": "authorisedUploaders",
      "outputs": [
        {
          "internalType": "bool",
          "name": "",
          "type": "bool"
        }
      ],
      "stateMutability": "view",
      "type": "function",
      "constant": true
    },
    {
      "inputs": [],
      "name": "jsonRecordCount",
      "outputs": [
        {
          "internalType": "uint256",
          "name": "",
          "type": "uint256"
        }
      ],
      "stateMutability": "view",
      "type": "function",
      "constant": true
    },
    {
      "inputs": [
        {
          "internalType": "uint256",
          "name": "",
          "type": "uint256"
        }
      ],
      "name": "jsonRecords",
      "outputs": [
        {
          "internalType": "address",
          "name": "user",
          "type": "address"
        },
        {
          "internalType": "string",
          "name": "data",
          "type": "string"
        },
        {
          "internalType": "uint256",
          "name": "timestamp",
          "type": "uint256"
        },
        {
          "internalType": "string",
          "name": "projectId",
          "type": "string"
        }
      ],
      "stateMutability": "view",
      "type": "function",
      "constant": true
    },
    {
      "inputs": [],
      "name": "materialRecordCount",
      "outputs": [
        {
          "internalType": "uint256",
          "name": "",
          "type": "uint256"
        }
      ],
      "stateMutability": "view",
      "type": "function",
      "constant": true
    },
    {
      "inputs": [
        {
          "internalType": "uint256",
          "name": "",
          "type": "uint256"
        }
      ],
      "name": "materialRecords",
      "outputs": [
        {
          "internalType": "address",
          "name": "user",
          "type": "address"
        },
        {
          "internalType": "enum EmbodiedCarbonLedgerV2.Material",
          "name": "material",
          "type": "uint8"
        },
        {
          "internalType": "uint256",
          "name": "volume",
          "type": "uint256"
        },
        {
          "internalType": "uint256",
          "name": "a1A3",
          "type": "uint256"
        },
        {
          "internalType": "uint256",
          "name": "a4",
          "type": "uint256"
        },
        {
          "internalType": "uint256",
          "name": "a5w",
          "type": "uint256"
        },
        {
          "internalType": "uint256",
          "name": "total",
          "type": "uint256"
        },
        {
          "internalType": "uint256",
          "name": "timestamp",
          "type": "uint256"
        },
        {
          "internalType": "string",
          "name": "projectId",
          "type": "string"
        }
      ],
      "stateMutability": "view",
      "type": "function",
      "constant": true
    },
    {
      "inputs": [],
      "name": "owner",
      "outputs": [
        {
          "internalType": "address",
          "name": "",
          "type": "address"
        }
      ],
      "stateMutability": "view",
      "type": "function",
      "constant": true
    },
    {
      "inputs": [
        {
          "internalType": "string",
          "name": "",
          "type": "string"
        }
      ],
      "name": "projectSummaries",
      "outputs": [
        {
          "internalType": "uint256",
          "name": "totalConcrete",
          "type": "uint256"
        },
        {
          "internalType": "uint256",
          "name": "totalCLT",
          "type": "uint256"
        },
        {
          "internalType": "uint256",
          "name": "totalSteel",
          "type": "uint256"
        },
        {
          "internalType": "uint256",
          "name": "totalEmissions",
          "type": "uint256"
        },
        {
          "internalType": "uint256",
          "name": "recordCount",
          "type": "uint256"
        },
        {
          "internalType": "uint256",
          "name": "lastUpdated",
          "type": "uint256"
        }
      ],
      "stateMutability": "view",
      "type": "function",
      "constant": true
    },
    {
      "inputs": [],
      "name": "totalCLTVolume",
      "outputs": [
        {
          "internalType": "uint256",
          "name": "",
          "type": "uint256"
        }
      ],
      "stateMutability": "view",
      "type": "function",
      "constant": true
    },
    {
      "inputs": [],
      "name": "totalConcreteVolume",
      "outputs": [
        {
          "internalType": "uint256",
          "name": "",
          "type": "uint256"
        }
      ],
      "stateMutability": "view",
      "type": "function",
      "constant": true
    },
    {
      "inputs": [],
      "name": "totalEmissionsTracked",
      "outputs": [
        {
          "internalType": "uint256",
          "name": "",
          "type": "uint256"
        }
      ],
      "stateMutability": "view",
      "type": "function",
      "constant": true
    },
    {
      "inputs": [],
      "name": "totalSteelVolume",
      "outputs": [
        {
          "internalType": "uint256",
          "name": "",
          "type": "uint256"
        }
      ],
      "stateMutability": "view",
      "type": "function",
      "constant": true
    },
    {
      "inputs": [
        {
          "internalType": "address",
          "name": "",
          "type": "address"
        },
        {
          "internalType": "uint256",
          "name": "",
          "type": "uint256"
        }
      ],
      "name": "userProjects",
      "outputs": [
        {
          "internalType": "string",
          "name": "",
          "type": "string"
        }
      ],
      "stateMutability": "view",
      "type": "function",
      "constant": true
    },
    {
      "inputs": [
        {
          "internalType": "string",
          "name": "jsonBlob",
          "type": "string"
        },
        {
          "internalType": "string",
          "name": "projectId",
          "type": "string"
        }
      ],
      "name": "storeEmissionData",
      "outputs": [
        {
          "internalType": "uint256",
          "name": "id",
          "type": "uint256"
        }
      ],
      "stateMutability": "nonpayable",
      "type": "function"
    },
    {
      "inputs": [
        {
          "internalType": "enum EmbodiedCarbonLedgerV2.Material",
          "name": "material",
          "type": "uint8"
        },
        {
          "internalType": "uint256",
          "name": "scaledVolume",
          "type": "uint256"
        },
        {
          "internalType": "string",
          "name": "projectId",
          "type": "string"
        }
      ],
      "name": "recordMaterialEmissions",
      "outputs": [
        {
          "internalType": "uint256",
          "name": "id",
          "type": "uint256"
        }
      ],
      "stateMutability": "nonpayable",
      "type": "function"
    },
    {
      "inputs": [
        {
          "internalType": "address",
          "name": "uploader",
          "type": "address"
        }
      ],
      "name": "authoriseUploader",
      "outputs": [],
      "stateMutability": "nonpayable",
      "type": "function"
    },
    {
      "inputs": [
        {
          "internalType": "address",
          "name": "uploader",
          "type": "address"
        }
      ],
      "name": "deauthoriseUploader",
      "outputs": [],
      "stateMutability": "nonpayable",
      "type": "function"
    },
    {
      "inputs": [
        {
          "internalType": "address",
          "name": "newOwner",
          "type": "address"
        }
      ],
      "name": "transferOwnership",
      "outputs": [],
      "stateMutability": "nonpayable",
      "type": "function"
    },
    {
      "inputs": [
        {
          "internalType": "address",
          "name": "user",
          "type": "address"
        }
      ],
      "name": "getUserProjects",
      "outputs": [
        {
          "internalType": "string[]",
          "name": "",
          "type": "string[]"
        }
      ],
      "stateMutability": "view",
      "type": "function",
      "constant": true
    },
    {
      "inputs": [],
      "name": "getGlobalStats",
      "outputs": [
        {
          "internalType": "uint256",
          "name": "concreteVolume",
          "type": "uint256"
        },
        {
          "internalType": "uint256",
          "name": "cltVolume",
          "type": "uint256"
        },
        {
          "internalType": "uint256",
          "name": "steelVolume",
          "type": "uint256"
        },
        {
          "internalType": "uint256",
          "name": "totalEmissions",
          "type": "uint256"
        }
      ],
      "stateMutability": "view",
      "type": "function",
      "constant": true
    },
    {
      "inputs": [
        {
          "internalType": "enum EmbodiedCarbonLedgerV2.Material",
          "name": "material",
          "type": "uint8"
        },
        {
          "internalType": "uint256",
          "name": "scaledVolume",
          "type": "uint256"
        }
      ],
      "name": "calculateEmissions",
      "outputs": [
        {
          "internalType": "uint256",
          "name": "a1A3",
          "type": "uint256"
        },
        {
          "internalType": "uint256",
          "name": "a4",
          "type": "uint256"
        },
        {
          "internalType": "uint256",
          "name": "a5w",
          "type": "uint256"
        },
        {
          "internalType": "uint256",
          "name": "total",
          "type": "uint256"
        }
      ],
      "stateMutability": "pure",
      "type": "function",
      "constant": true
    }
  ],
  "bytecode": "0x608060405234801561001057600080fd5b50600080546001600160a01b0319163390811782558152600860205260409020805460ff191660011790556117878061004a6000396000f3fe608060405234801561001057600080fd5b506004361061012c5760003560e01c80637bba30b7116100ad578063ced11b5111610071578063ced11b511461032c578063dd53f0a61461033f578063e32e723c14610348578063e870f46114610368578063f2fde38b1461037157600080fd5b80637bba30b71461022357806381dc9107146102465780638da5cb5b146102595780638f826b8f14610284578063bc913e4e1461030457600080fd5b80633d95791e116100f45780633d95791e146101be5780633ffd3841146101c757806351c07bc2146101da5780635d6125ad146101e35780636b4169c3146101f657600080fd5b8063083a61ba1461013157806312d905d91461014d578063168f395e146101565780632fa9c0071461018957806337deb05e146101a9575b600080fd5b61013a60025481565b6040519081526020015b60405180910390f35b61013a600c5481565b610179610164366004611123565b60086020526000908152604090205460ff1681565b6040519015158152602001610144565b61019c610197366004611145565b610384565b60405161014491906111bf565b6101bc6101b7366004611123565b61043d565b005b61013a600a5481565b61013a6101d536600461121b565b6104b4565b61013a600b5481565b6101bc6101f1366004611123565b6106e5565b600954600a54600b54600c545b604080519485526020850193909352918301526060820152608001610144565b610236610231366004611287565b610759565b60405161014494939291906112a0565b61013a6102543660046112f6565b61089c565b60005461026c906001600160a01b031681565b6040516001600160a01b039091168152602001610144565b6102d761029236600461135a565b80516020818301810180516005808352938301929094019190912092905281546001830154600284015460038501546004860154959094015492949193909290919086565b604080519687526020870195909552938501929092526060840152608083015260a082015260c001610144565b610317610312366004611287565b610b63565b60405161014499989796959493929190611443565b61020361033a3660046114a8565b610c41565b61013a60015481565b61035b610356366004611123565b610c61565b60405161014491906114c4565b61013a60095481565b6101bc61037f366004611123565b610d50565b600660205281600052604060002081815481106103a057600080fd5b906000526020600020016000915091505080546103bc90611526565b80601f01602080910402602001604051908101604052809291908181526020018280546103e890611526565b80156104355780601f1061040a57610100808354040283529160200191610435565b820191906000526020600020905b81548152906001019060200180831161041857829003601f168201915b505050505081565b6000546001600160a01b0316331461046857604051635fc483c560e01b815260040160405180910390fd5b6001600160a01b038116600081815260086020526040808220805460ff19166001179055517f5f2ad6420e7db801741119e15ba345fc53ea342cc22dc7942085208bd6d7da8e9190a250565b600080546001600160a01b03163314806104dd57503360009081526008602052604090205460ff165b6104fa57604051631648fd0160e01b815260040160405180910390fd5b600084900361051c576040516305adbcbf60e11b815260040160405180910390fd5b5060028054600101908190556040805160808101825233815281516020601f88018190048102820181019093528681529091808301919088908890819084018382808284376000920191909152505050908252504260208083019190915260408051601f870183900483028101830182528681529201919086908690819084018382808284376000920182905250939094525050838152600460209081526040909120835181546001600160a01b0319166001600160a01b039091161781559083015190915060018201906105f190826115af565b50604082015160028201556060820151600382019061061090826115af565b5050821590506106815761065a3384848080601f016020809104026020016040519081016040528093929190818152602001838380828437600092019190915250610dda92505050565b426005848460405161066d92919061166f565b908152604051908190036020019020600501555b828260405161069192919061166f565b6040518091039020336001600160a01b0316827f8cf8db18f9138d12a3f378bcecad8401463997efb1e6be4a97e2bc867e7bb07388886040516106d592919061167f565b60405180910390a4949350505050565b6000546001600160a01b0316331461071057604051635fc483c560e01b815260040160405180910390fd5b6001600160a01b038116600081815260086020526040808220805460ff19169055517fdbd83f0c22f1049642afb1f0df8699928befd232ef66d74ef3a85c2611c4596e9190a250565b600460205260009081526040902080546001820180546001600160a01b03909216929161078590611526565b80601f01602080910402602001604051908101604052809291908181526020018280546107b190611526565b80156107fe5780601f106107d3576101008083540402835291602001916107fe565b820191906000526020600020905b8154815290600101906020018083116107e157829003601f168201915b50505050509080600201549080600301805461081990611526565b80601f016020809104026020016040519081016040528092919081815260200182805461084590611526565b80156108925780601f1061086757610100808354040283529160200191610892565b820191906000526020600020905b81548152906001019060200180831161087557829003601f168201915b5050505050905084565b600080546001600160a01b03163314806108c557503360009081526008602052604090205460ff165b6108e257604051631648fd0160e01b815260040160405180910390fd5b8360000361090357604051631941b84f60e01b815260040160405180910390fd5b6000806000806109138989610e6b565b6001805481019081905560408051610120810190915233815290995093975091955093509150602081018a600281111561094f5761094f61140b565b815260200189815260200185815260200184815260200183815260200182815260200142815260200188888080601f0160208091040260200160405190810160405280939291908181526020018383808284376000920182905250939094525050878152600360209081526040909120835181546001600160a01b039091166001600160a01b031982168117835592850151919350909183916001600160a81b03191617600160a01b836002811115610a0a57610a0a61140b565b021790555060408201516001820155606082015160028201556080820151600382015560a0820151600482015560c0820151600582015560e082015160068201556101008201516007820190610a6090826115af565b50905050610a6f898983610f19565b8515610af957610ab987878080601f0160208091040260200160405190810160405280939291908181526020018383808284376000920191909152508d92508c9150859050610fae565b610af93388888080601f016020809104026020016040519081016040528093929190818152602001838380828437600092019190915250610dda92505050565b8686604051610b0992919061166f565b6040518091039020336001600160a01b0316867fd29a96decea3c4c339ca191c14be6f0ead3c948266492e42954f0f9c14143e6c8c8c86604051610b4f939291906116ae565b60405180910390a450505050949350505050565b6003602081905260009182526040909120805460018201546002830154938301546004840154600585015460068601546007870180546001600160a01b03881699600160a01b90980460ff16989697969190610bbe90611526565b80601f0160208091040260200160405190810160405280929190818152602001828054610bea90611526565b8015610c375780601f10610c0c57610100808354040283529160200191610c37565b820191906000526020600020905b815481529060010190602001808311610c1a57829003601f168201915b5050505050905089565b600080600080610c518686610e6b565b9299919850965090945092505050565b6001600160a01b0381166000908152600660209081526040808320805482518185028101850190935280835260609492939192909184015b82821015610d45578382906000526020600020018054610cb890611526565b80601f0160208091040260200160405190810160405280929190818152602001828054610ce490611526565b8015610d315780601f10610d0657610100808354040283529160200191610d31565b820191906000526020600020905b815481529060010190602001808311610d1457829003601f168201915b505050505081526020019060010190610c99565b505050509050919050565b6000546001600160a01b03163314610d7b57604051635fc483c560e01b815260040160405180910390fd5b6001600160a01b038116610da25760405163e6c4247b60e01b815260040160405180910390fd5b600080546001600160a01b039092166001600160a01b031990921682178155908152600860205260409020805460ff19166001179055565b80516020808301919091206001600160a01b0384166000908152600783526040808220838352909352919091205460ff1615610e1557505050565b6001600160a01b03831660008181526007602090815260408083208584528252808320805460ff19166001908117909155938352600682528220805493840181558252902001610e6583826115af565b50505050565b600080600080600080600080610e808a611081565b93509350935093506000620f42408a86610e9a91906116e3565b610ea49190611700565b9050620f4240610eb485836116e3565b610ebe9190611700565b9850620f4240610ece84836116e3565b610ed89190611700565b9750620f4240610ee883836116e3565b610ef29190611700565b965086610eff898b611722565b610f099190611722565b9550505050505092959194509250565b6000836002811115610f2d57610f2d61140b565b03610f4f578160096000828254610f449190611722565b90915550610f929050565b6001836002811115610f6357610f6361140b565b03610f7a5781600a6000828254610f449190611722565b81600b6000828254610f8c9190611722565b90915550505b80600c6000828254610fa49190611722565b9091555050505050565b6000600585604051610fc09190611735565b90815260405190819003602001902090506000846002811115610fe557610fe561140b565b036110095782816000016000828254610ffe9190611722565b909155506110509050565b600184600281111561101d5761101d61140b565b036110365782816001016000828254610ffe9190611722565b8281600201600082825461104a9190611722565b90915550505b818160030160008282546110649190611722565b909155505060048101805460010190554260059091015550505050565b6000808080808560028111156110995761109961140b565b036110b7575061096092506201d4c091506113889050611f40611100565b60018560028111156110cb576110cb61140b565b036110ea57506101f492506206ab089150620271009050611b58611100565b50611eaa9250622562509150617d0090506203d0905b9193509193565b80356001600160a01b038116811461111e57600080fd5b919050565b60006020828403121561113557600080fd5b61113e82611107565b9392505050565b6000806040838503121561115857600080fd5b61116183611107565b946020939093013593505050565b60005b8381101561118a578181015183820152602001611172565b50506000910152565b600081518084526111ab81602086016020860161116f565b601f01601f19169290920160200192915050565b60208152600061113e6020830184611193565b60008083601f8401126111e457600080fd5b50813567ffffffffffffffff8111156111fc57600080fd5b60208301915083602082850101111561121457600080fd5b9250929050565b6000806000806040858703121561123157600080fd5b843567ffffffffffffffff8082111561124957600080fd5b611255888389016111d2565b9096509450602087013591508082111561126e57600080fd5b5061127b878288016111d2565b95989497509550505050565b60006020828403121561129957600080fd5b5035919050565b6001600160a01b03851681526080602082018190526000906112c490830186611193565b84604084015282810360608401526112dc8185611193565b979650505050505050565b80356003811061111e57600080fd5b6000806000806060858703121561130c57600080fd5b611315856112e7565b935060208501359250604085013567ffffffffffffffff81111561133857600080fd5b61127b878288016111d2565b634e487b7160e01b600052604160045260246000fd5b60006020828403121561136c57600080fd5b813567ffffffffffffffff8082111561138457600080fd5b818401915084601f83011261139857600080fd5b8135818111156113aa576113aa611344565b604051601f8201601f19908116603f011681019083821181831017156113d2576113d2611344565b816040528281528760208487010111156113eb57600080fd5b826020860160208301376000928101602001929092525095945050505050565b634e487b7160e01b600052602160045260246000fd5b6003811061143f57634e487b7160e01b600052602160045260246000fd5b9052565b6001600160a01b038a1681526000610120611461602084018c611421565b8960408401528860608401528760808401528660a08401528560c08401528460e08401528061010084015261149881840185611193565b9c9b505050505050505050505050565b600080604083850312156114bb57600080fd5b611161836112e7565b6000602080830181845280855180835260408601915060408160051b870101925083870160005b8281101561151957603f19888603018452611507858351611193565b945092850192908501906001016114eb565b5092979650505050505050565b600181811c9082168061153a57607f821691505b60208210810361155a57634e487b7160e01b600052602260045260246000fd5b50919050565b601f8211156115aa57600081815260208120601f850160051c810160208610156115875750805b601f850160051c820191505b818110156115a657828155600101611593565b5050505b505050565b815167ffffffffffffffff8111156115c9576115c9611344565b6115dd816115d78454611526565b84611560565b602080601f83116001811461161257600084156115fa5750858301515b600019600386901b1c1916600185901b1785556115a6565b600085815260208120601f198616915b8281101561164157888601518255948401946001909101908401611622565b508582101561165f5787850151600019600388901b60f8161c191681555b5050505050600190811b01905550565b8183823760009101908152919050565b60208152816020820152818360408301376000818301604090810191909152601f909201601f19160101919050565b606081016116bc8286611421565b602082019390935260400152919050565b634e487b7160e01b600052601160045260246000fd5b80820281158282048414176116fa576116fa6116cd565b92915050565b60008261171d57634e487b7160e01b600052601260045260246000fd5b500490565b808201808211156116fa576116fa6116cd565b6000825161174781846020870161116f565b919091019291505056fea26469706673582212206a37d00a88261308c0cc1ab8b17c6faf247c87c03cc810fcc73f2329d3b1511964736f6c63430008130033",
  "immutableReferences": {},
  "source": "// SPDX-License-Identifier: MIT\r\npragma solidity ^0.8.19;\r\n\r\n/**\r\n * @title EmbodiedCarbonLedgerV2 (gas-optimised)\r\n * NOTE:   All public state-variables, function names, and event names\r\n *          remain identical  the front-end ABI is unchanged.\r\n *         No business-logic or maths has been altered.\r\n *         Only gas-saving refactors have been applied.\r\n */\r\ncontract EmbodiedCarbonLedgerV2 {\r\n    /*   CUSTOM ERRORS   */\r\n    error OnlyOwner();\r\n    error NotAuthorised();\r\n    error EmptyJSON();\r\n    error VolumeZero();\r\n    error InvalidAddress();\r\n\r\n    /*   ENUMS & STRUCTS   */\r\n    enum Material { Concrete, CLT, Steel }\r\n\r\n    struct EmissionsRecord {\r\n        address user;          // 20 bytes\r\n        Material material;     // 1 byte\r\n        uint256 volume;        // m  1e6\r\n        uint256 a1A3;\r\n        uint256 a4;\r\n        uint256 a5w;\r\n        uint256 total;\r\n        uint256 timestamp;\r\n        string  projectId;\r\n    }\r\n\r\n    struct JSONBlobRecord {\r\n        address user;\r\n        string  data;\r\n        uint256 timestamp;\r\n        string  projectId;\r\n    }\r\n\r\n    struct ProjectSummary {\r\n        uint256 totalConcrete;\r\n        uint256 totalCLT;\r\n        uint256 totalSteel;\r\n        uint256 totalEmissions;\r\n        uint256 recordCount;\r\n        uint256 lastUpdated;\r\n    }\r\n\r\n    /*   STORAGE   */\r\n    address public owner;\r\n    uint256 public materialRecordCount;\r\n    uint256 public jsonRecordCount;\r\n\r\n    mapping(uint256 => EmissionsRecord) public materialRecords;\r\n    mapping(uint256 => JSONBlobRecord)  public jsonRecords;\r\n\r\n    mapping(string  => ProjectSummary)  public projectSummaries;\r\n    mapping(address => string[])        public userProjects;\r\n\r\n    /* O(1) \"have I pushed already?\" helper \r\n       bytes32(key)  bool so we never iterate through userProjects */\r\n    mapping(address => mapping(bytes32 => bool)) private _projectSeen;\r\n\r\n    mapping(address => bool) public authorisedUploaders;\r\n\r\n    uint256 public totalConcreteVolume;\r\n    uint256 public totalCLTVolume;\r\n    uint256 public totalSteelVolume;\r\n    uint256 public totalEmissionsTracked;\r\n\r\n    /*   CONSTANTS   */\r\n    // Densities (kg/m)\r\n    uint256 private constant D_CONC  = 2400;\r\n    uint256 private constant D_CLT   = 500;\r\n    uint256 private constant D_STEEL = 7850;\r\n\r\n    // Emission factors (kg COe / kg)  1e6\r\n    uint256 private constant F_CONC_A1A3 = 120_000;\r\n    uint256 private constant F_CONC_A4   =   5_000;\r\n    uint256 private constant F_CONC_A5w  =   8_000;\r\n\r\n    uint256 private constant F_CLT_A1A3  = 437_000;\r\n    uint256 private constant F_CLT_A4    = 160_000;\r\n    uint256 private constant F_CLT_A5w   =   7_000;\r\n\r\n    uint256 private constant F_STEEL_A1A3 = 2_450_000;\r\n    uint256 private constant F_STEEL_A4   =    32_000;\r\n    uint256 private constant F_STEEL_A5w  =   250_000;\r\n\r\n    /*   EVENTS   */\r\n    event MaterialEmissionsLogged(\r\n        uint256 indexed id,\r\n        address indexed user,\r\n        string  indexed projectId,\r\n        Material material,\r\n        uint256 volume,\r\n        uint256 totalKgCO2e\r\n    );\r\n    event EmissionsJSONLogged(\r\n        uint256 indexed id,\r\n        address indexed user,\r\n        string  indexed projectId,\r\n        string  jsonData\r\n    );\r\n    event UploaderAuthorised(address indexed uploader);\r\n    event UploaderDeauthorised(address indexed uploader);\r\n\r\n    /*   MODIFIERS   */\r\n    modifier onlyOwner() {\r\n        if (msg.sender != owner) revert OnlyOwner();\r\n        _;\r\n    }\r\n    modifier onlyAuthorised() {\r\n        if (!(msg.sender == owner || authorisedUploaders[msg.sender]))\r\n            revert NotAuthorised();\r\n        _;\r\n    }\r\n\r\n    /*   CONSTRUCTOR   */\r\n    constructor() {\r\n        owner = msg.sender;\r\n        authorisedUploaders[msg.sender] = true;\r\n    }\r\n\r\n    /*  PUBLIC API  JSON   */\r\n    function storeEmissionData(\r\n        string calldata jsonBlob,\r\n        string calldata projectId\r\n    ) external onlyAuthorised returns (uint256 id) {\r\n        if (bytes(jsonBlob).length == 0) revert EmptyJSON();\r\n\r\n        unchecked { ++jsonRecordCount; }\r\n        id = jsonRecordCount;\r\n\r\n        jsonRecords[id] = JSONBlobRecord({\r\n            user: msg.sender,\r\n            data: jsonBlob,\r\n            timestamp: block.timestamp,\r\n            projectId: projectId\r\n        });\r\n\r\n        if (bytes(projectId).length != 0) {\r\n            _trackUserProject(msg.sender, projectId);\r\n            projectSummaries[projectId].lastUpdated = block.timestamp;\r\n        }\r\n        emit EmissionsJSONLogged(id, msg.sender, projectId, jsonBlob);\r\n    }\r\n\r\n    /*  PUBLIC API  MATERIAL   */\r\n    function recordMaterialEmissions(\r\n        Material material,\r\n        uint256 scaledVolume,\r\n        string calldata projectId\r\n    ) external onlyAuthorised returns (uint256 id) {\r\n        if (scaledVolume == 0) revert VolumeZero();\r\n\r\n        (\r\n            uint256 a1A3,\r\n            uint256 a4,\r\n            uint256 a5w,\r\n            uint256 total\r\n        ) = _calculate(material, scaledVolume);\r\n\r\n        unchecked { ++materialRecordCount; }\r\n        id = materialRecordCount;\r\n\r\n        materialRecords[id] = EmissionsRecord({\r\n            user: msg.sender,\r\n            material: material,\r\n            volume: scaledVolume,\r\n            a1A3: a1A3,\r\n            a4: a4,\r\n            a5w: a5w,\r\n            total: total,\r\n            timestamp: block.timestamp,\r\n            projectId: projectId\r\n        });\r\n\r\n        _updateGlobalStats(material, scaledVolume, total);\r\n\r\n        if (bytes(projectId).length != 0) {\r\n            _updateProjectSummary(projectId, material, scaledVolume, total);\r\n            _trackUserProject(msg.sender, projectId);\r\n        }\r\n\r\n        emit MaterialEmissionsLogged(\r\n            id, msg.sender, projectId, material, scaledVolume, total\r\n        );\r\n    }\r\n\r\n    /*  ACCESS CONTROL   */\r\n    function authoriseUploader(address uploader) external onlyOwner {\r\n        authorisedUploaders[uploader] = true;\r\n        emit UploaderAuthorised(uploader);\r\n    }\r\n    function deauthoriseUploader(address uploader) external onlyOwner {\r\n        authorisedUploaders[uploader] = false;\r\n        emit UploaderDeauthorised(uploader);\r\n    }\r\n    function transferOwnership(address newOwner) external onlyOwner {\r\n        if (newOwner == address(0)) revert InvalidAddress();\r\n        owner = newOwner;\r\n        authorisedUploaders[newOwner] = true;\r\n    }\r\n\r\n    /*  VIEW HELPERS   */\r\n    function getUserProjects(address user)\r\n        external view returns (string[] memory)\r\n    { return userProjects[user]; }\r\n\r\n    function getGlobalStats()\r\n        external view\r\n        returns (\r\n            uint256 concreteVolume,\r\n            uint256 cltVolume,\r\n            uint256 steelVolume,\r\n            uint256 totalEmissions\r\n        )\r\n    {\r\n        return (\r\n            totalConcreteVolume,\r\n            totalCLTVolume,\r\n            totalSteelVolume,\r\n            totalEmissionsTracked\r\n        );\r\n    }\r\n\r\n    function calculateEmissions(Material material, uint256 scaledVolume)\r\n        external pure\r\n        returns (uint256 a1A3, uint256 a4, uint256 a5w, uint256 total)\r\n    { return _calculate(material, scaledVolume); }\r\n\r\n    /*  INTERNAL  MATHS   */\r\n    function _calculate(Material mat, uint256 scaledVol)\r\n        internal pure\r\n        returns (uint256 a1A3, uint256 a4, uint256 a5w, uint256 total)\r\n    {\r\n        (\r\n            uint256 density,\r\n            uint256 fA1A3,\r\n            uint256 fA4,\r\n            uint256 fA5w\r\n        ) = _params(mat);\r\n\r\n        uint256 massKg = (density * scaledVol) / 1e6;\r\n\r\n        a1A3 = (massKg * fA1A3) / 1e6;\r\n        a4   = (massKg * fA4)   / 1e6;\r\n        a5w  = (massKg * fA5w)  / 1e6;\r\n        total = a1A3 + a4 + a5w;\r\n    }\r\n\r\n    function _params(Material mat)\r\n        private pure\r\n        returns (\r\n            uint256 density,\r\n            uint256 fA1A3,\r\n            uint256 fA4,\r\n            uint256 fA5w\r\n        )\r\n    {\r\n        if (mat == Material.Concrete)\r\n            return (D_CONC, F_CONC_A1A3, F_CONC_A4, F_CONC_A5w);\r\n        if (mat == Material.CLT)\r\n            return (D_CLT,  F_CLT_A1A3, F_CLT_A4, F_CLT_A5w);\r\n        return (D_STEEL, F_STEEL_A1A3, F_STEEL_A4, F_STEEL_A5w);\r\n    }\r\n\r\n    /*  INTERNAL  STATS   */\r\n    function _updateGlobalStats(\r\n        Material material,\r\n        uint256 volume,\r\n        uint256 emissions\r\n    ) private {\r\n        if (material == Material.Concrete) {\r\n            totalConcreteVolume += volume;\r\n        } else if (material == Material.CLT) {\r\n            totalCLTVolume += volume;\r\n        } else {\r\n            totalSteelVolume += volume;\r\n        }\r\n        totalEmissionsTracked += emissions;\r\n    }\r\n\r\n    function _updateProjectSummary(\r\n        string memory projectId,\r\n        Material material,\r\n        uint256 volume,\r\n        uint256 emissions\r\n    ) private {\r\n        ProjectSummary storage s = projectSummaries[projectId];\r\n\r\n        if (material == Material.Concrete) {\r\n            s.totalConcrete += volume;\r\n        } else if (material == Material.CLT) {\r\n            s.totalCLT += volume;\r\n        } else {\r\n            s.totalSteel += volume;\r\n        }\r\n        s.totalEmissions += emissions;\r\n        unchecked { ++s.recordCount; }\r\n        s.lastUpdated = block.timestamp;\r\n    }\r\n\r\n    /*  INTERNAL  PROJECT LIST   */\r\n    function _trackUserProject(address user, string memory projectId) private {\r\n        bytes32 key = keccak256(bytes(projectId));\r\n        if (_projectSeen[user][key]) return;              // O(1) check\r\n        _projectSeen[user][key] = true;\r\n        userProjects[user].push(projectId);\r\n    }\r\n}\r\n",
  "sourcePath": "C:\\CodeJaai\\Project BIM\\project\\src\\contracts\\EmbodiedCarbonLedgerV2.sol",
  "compiler": {
    "name": "solc",
    "version": "0.8.19+commit.7dd6d404.Emscripten.clang"
  },
  "schemaVersion": "3.4.16",
  "updatedAt": "2025-05-31T05:54:56.144Z",
  "networkType": "ethereum",
  "devdoc": {
    "kind": "dev",
    "methods": {},
    "title": "EmbodiedCarbonLedgerV2 (gas-optimised) NOTE:   All public state-variables, function names, and event names          remain identical  the front-end ABI is unchanged.         No business-logic or maths has been altered.         Only gas-saving refactors have been applied.",
    "version": 1
  },
  "userdoc": {
    "kind": "user",
    "methods": {},
    "version": 1
  }
}